{
    "contractName": "Employee",
    "abi": [
        {
            "constant": false,
            "inputs": [
                {
                    "name": "employedIndex",
                    "type": "uint256"
                }
            ],
            "name": "buyEmployed",
            "outputs": [],
            "payable": true,
            "stateMutability": "payable",
            "type": "function"
        },
        {
            "constant": true,
            "inputs": [],
            "name": "getRefundableEther",
            "outputs": [
                {
                    "name": "",
                    "type": "uint256"
                }
            ],
            "payable": false,
            "stateMutability": "view",
            "type": "function"
        },
        {
            "constant": true,
            "inputs": [
                {
                    "name": "",
                    "type": "address"
                }
            ],
            "name": "workeds",
            "outputs": [
                {
                    "name": "loyaltyPoints",
                    "type": "uint256"
                },
                {
                    "name": "totalEmployeds",
                    "type": "uint256"
                }
            ],
            "payable": false,
            "stateMutability": "view",
            "type": "function"
        },
        {
            "constant": true,
            "inputs": [
                {
                    "name": "",
                    "type": "uint256"
                }
            ],
            "name": "employeds",
            "outputs": [
                {
                    "name": "name",
                    "type": "string"
                },
                {
                    "name": "salary",
                    "type": "uint256"
                }
            ],
            "payable": false,
            "stateMutability": "view",
            "type": "function"
        },
        {
            "constant": true,
            "inputs": [
                {
                    "name": "",
                    "type": "address"
                }
            ],
            "name": "workedsTotalEmployeds",
            "outputs": [
                {
                    "name": "",
                    "type": "uint256"
                }
            ],
            "payable": false,
            "stateMutability": "view",
            "type": "function"
        },
        {
            "constant": true,
            "inputs": [],
            "name": "totalEmployeds",
            "outputs": [
                {
                    "name": "",
                    "type": "uint256"
                }
            ],
            "payable": false,
            "stateMutability": "view",
            "type": "function"
        },
        {
            "constant": true,
            "inputs": [],
            "name": "getEmployeeBalance",
            "outputs": [
                {
                    "name": "",
                    "type": "uint256"
                }
            ],
            "payable": false,
            "stateMutability": "view",
            "type": "function"
        },
        {
            "constant": true,
            "inputs": [],
            "name": "owner",
            "outputs": [
                {
                    "name": "",
                    "type": "address"
                }
            ],
            "payable": false,
            "stateMutability": "view",
            "type": "function"
        },
        {
            "constant": true,
            "inputs": [
                {
                    "name": "",
                    "type": "address"
                },
                {
                    "name": "",
                    "type": "uint256"
                }
            ],
            "name": "workedsEmployeds",
            "outputs": [
                {
                    "name": "name",
                    "type": "string"
                },
                {
                    "name": "salary",
                    "type": "uint256"
                }
            ],
            "payable": false,
            "stateMutability": "view",
            "type": "function"
        },
        {
            "constant": false,
            "inputs": [],
            "name": "redeemLoyaltyPoints",
            "outputs": [],
            "payable": false,
            "stateMutability": "nonpayable",
            "type": "function"
        },
        {
            "inputs": [],
            "payable": false,
            "stateMutability": "nonpayable",
            "type": "constructor"
        },
        {
            "anonymous": false,
            "inputs": [
                {
                    "indexed": true,
                    "name": "worked",
                    "type": "address"
                },
                {
                    "indexed": false,
                    "name": "salary",
                    "type": "uint256"
                },
                {
                    "indexed": false,
                    "name": "employed",
                    "type": "string"
                }
            ],
            "name": "EmployedPurchased",
            "type": "event"
        }
    ],
    "bytecode": "60806040526706f05b59d3b2000060015534801561001c57600080fd5b5060008054600160a060020a031916331781556040805160808101825260069181019182527f4a617669657200000000000000000000000000000000000000000000000000006060820152908152673782dace9d900000602080830191909152600280546001810180835594829052835180519190920260008051602061097983398151915201926100b29284929101906101e5565b506020918201516001918201556040805160808101825260069181019182527f4d696c746f6e000000000000000000000000000000000000000000000000000060608201529081526729a2241af62c0000818401526002805492830180825560008290528251805191965092949390910260008051602061097983398151915201926101429284929101906101e5565b506020918201516001918201556040805160808101825260049181019182527f4a6f73650000000000000000000000000000000000000000000000000000000060608201529081526729a2241af62c0000818401526002805492830180825560008290528251805191965092949390910260008051602061097983398151915201926101d29284929101906101e5565b5060208201518160010155505050610280565b828054600181600116156101000203166002900490600052602060002090601f016020900481019282601f1061022657805160ff1916838001178555610253565b82800160010185558215610253579182015b82811115610253578251825591602001919060010190610238565b5061025f929150610263565b5090565b61027d91905b8082111561025f5760008155600101610269565b90565b6106ea8061028f6000396000f3006080604052600436106100a25763ffffffff7c0100000000000000000000000000000000000000000000000000000000600035041662574ae681146100a75780632411ff73146100b45780634b6c1bd1146100db57806353a774e9146101225780635f35cdfb146101b957806367a0b4d0146101e75780638245163b146101fc5780638da5cb5b14610211578063c31872e31461024f578063f997114f14610280575b600080fd5b6100b2600435610295565b005b3480156100c057600080fd5b506100c961040e565b60408051918252519081900360200190f35b3480156100e757600080fd5b5061010973ffffffffffffffffffffffffffffffffffffffff60043516610426565b6040805192835260208301919091528051918290030190f35b34801561012e57600080fd5b5061013a60043561043f565b6040518080602001838152602001828103825284818151815260200191508051906020019080838360005b8381101561017d578181015183820152602001610165565b50505050905090810190601f1680156101aa5780820380516001836020036101000a031916815260200191505b50935050505060405180910390f35b3480156101c557600080fd5b506100c973ffffffffffffffffffffffffffffffffffffffff600435166104f3565b3480156101f357600080fd5b506100c9610505565b34801561020857600080fd5b506100c961050b565b34801561021d57600080fd5b5061022661053d565b6040805173ffffffffffffffffffffffffffffffffffffffff9092168252519081900360200190f35b34801561025b57600080fd5b5061013a73ffffffffffffffffffffffffffffffffffffffff60043516602435610559565b34801561028c57600080fd5b506100b26105df565b6000806002838154811015156102a757fe5b906000526020600020906002020191508160010154341415156102c957600080fd5b503360009081526003602090815260408083208054600501815560018082018054820190556004845291842080548084018083559186529390942085549194938693600291820290920192610331928492869291821615610100026000190190911604610629565b5060019182015490820155336000818152600560209081526040918290208054850190558684015482518181529182018381528854600296811615610100026000190116959095049282018390529294507fc1b8c3c208bbcc7aa38020fcc9c1d03e3b1950d2e9a0d782439ee832a7f593499387926060830190849080156103fa5780601f106103cf576101008083540402835291602001916103fa565b820191906000526020600020905b8154815290600101906020018083116103dd57829003601f168201915b5050935050505060405180910390a2505050565b33600090815260036020526040902054600154025b90565b6003602052600090815260409020805460019091015482565b600280548290811061044d57fe5b60009182526020918290206002918202018054604080516001831615610100026000190190921693909304601f8101859004850282018501909352828152909350918391908301828280156104e35780601f106104b8576101008083540402835291602001916104e3565b820191906000526020600020905b8154815290600101906020018083116104c657829003601f168201915b5050505050908060010154905082565b60056020526000908152604090205481565b60025490565b60008054819073ffffffffffffffffffffffffffffffffffffffff16331461053257600080fd5b5050308031905b5090565b60005473ffffffffffffffffffffffffffffffffffffffff1681565b60046020528160005260406000208181548110151561057457fe5b60009182526020918290206002918202018054604080516001831615610100026000190190921693909304601f8101859004850282018501909352828152909450925083918301828280156104e35780601f106104b8576101008083540402835291602001916104e3565b3360008181526003602052604080822080546001549251919492029283156108fc02918491818181858888f19350505050158015610621573d6000803e3d6000fd5b505060009055565b828054600181600116156101000203166002900490600052602060002090601f016020900481019282601f10610662578054855561069e565b8280016001018555821561069e57600052602060002091601f016020900482015b8281111561069e578254825591600101919060010190610683565b50610539926104239250905b8082111561053957600081556001016106aa5600a165627a7a72305820492d2bb11f94bb40fa3448a0f0b214d05cf588ffbfe59a5222f665872675d4200029405787fa12a823e0f2b7631cc41b3ba8828b3321ca811111fa75cd3aa3bb5ace",
    "sourcePath": "c:/Users/hp/Desktop/Prueba/SmartPymes/contracts/Employee.sol",
    "compiler": {
        "name": "solc",
        "version": "0.4.24+commit.e67f0147"
    },
    "functionHashes": {
        "buyEmployed(uint256)": "00574ae6",
        "employeds(uint256)": "53a774e9",
        "getEmployeeBalance()": "8245163b",
        "getRefundableEther()": "2411ff73",
        "owner()": "8da5cb5b",
        "redeemLoyaltyPoints()": "f997114f",
        "totalEmployeds()": "67a0b4d0",
        "workeds(address)": "4b6c1bd1",
        "workedsEmployeds(address,uint256)": "c31872e3",
        "workedsTotalEmployeds(address)": "5f35cdfb"
    },
    "gasEstimates": {
        "creation": {
            "codeDepositCost": "354000",
            "executionCost": "infinite",
            "totalCost": "infinite"
        },
        "external": {
            "buyEmployed(uint256)": "infinite",
            "employeds(uint256)": "infinite",
            "getEmployeeBalance()": "965",
            "getRefundableEther()": "683",
            "owner()": "553",
            "redeemLoyaltyPoints()": "infinite",
            "totalEmployeds()": "494",
            "workeds(address)": "745",
            "workedsEmployeds(address,uint256)": "infinite",
            "workedsTotalEmployeds(address)": "550"
        }
    }
}