{
  "contractName": "Employee",
  "abi": [
    {
      "constant": true,
      "inputs": [
        {
          "name": "",
          "type": "address"
        }
      ],
      "name": "workeds",
      "outputs": [
        {
          "name": "loyaltyPoints",
          "type": "uint256"
        },
        {
          "name": "totalEmployeds",
          "type": "uint256"
        }
      ],
      "payable": false,
      "stateMutability": "view",
      "type": "function"
    },
    {
      "constant": true,
      "inputs": [
        {
          "name": "",
          "type": "uint256"
        }
      ],
      "name": "employeds",
      "outputs": [
        {
          "name": "name",
          "type": "string"
        },
        {
          "name": "salary",
          "type": "uint256"
        }
      ],
      "payable": false,
      "stateMutability": "view",
      "type": "function"
    },
    {
      "constant": true,
      "inputs": [
        {
          "name": "",
          "type": "address"
        }
      ],
      "name": "workedsTotalEmployeds",
      "outputs": [
        {
          "name": "",
          "type": "uint256"
        }
      ],
      "payable": false,
      "stateMutability": "view",
      "type": "function"
    },
    {
      "constant": true,
      "inputs": [],
      "name": "owner",
      "outputs": [
        {
          "name": "",
          "type": "address"
        }
      ],
      "payable": false,
      "stateMutability": "view",
      "type": "function"
    },
    {
      "constant": true,
      "inputs": [
        {
          "name": "",
          "type": "address"
        },
        {
          "name": "",
          "type": "uint256"
        }
      ],
      "name": "workedsEmployeds",
      "outputs": [
        {
          "name": "name",
          "type": "string"
        },
        {
          "name": "salary",
          "type": "uint256"
        }
      ],
      "payable": false,
      "stateMutability": "view",
      "type": "function"
    },
    {
      "inputs": [],
      "payable": false,
      "stateMutability": "nonpayable",
      "type": "constructor"
    },
    {
      "anonymous": false,
      "inputs": [
        {
          "indexed": true,
          "name": "worked",
          "type": "address"
        },
        {
          "indexed": false,
          "name": "salary",
          "type": "uint256"
        },
        {
          "indexed": false,
          "name": "employed",
          "type": "string"
        }
      ],
      "name": "EmployedPurchased",
      "type": "event"
    },
    {
      "constant": false,
      "inputs": [
        {
          "name": "employedIndex",
          "type": "uint256"
        }
      ],
      "name": "buyEmployed",
      "outputs": [],
      "payable": true,
      "stateMutability": "payable",
      "type": "function"
    },
    {
      "constant": true,
      "inputs": [],
      "name": "totalEmployeds",
      "outputs": [
        {
          "name": "",
          "type": "uint256"
        }
      ],
      "payable": false,
      "stateMutability": "view",
      "type": "function"
    },
    {
      "constant": false,
      "inputs": [],
      "name": "redeemLoyaltyPoints",
      "outputs": [],
      "payable": false,
      "stateMutability": "nonpayable",
      "type": "function"
    },
    {
      "constant": true,
      "inputs": [],
      "name": "getRefundableEther",
      "outputs": [
        {
          "name": "",
          "type": "uint256"
        }
      ],
      "payable": false,
      "stateMutability": "view",
      "type": "function"
    },
    {
      "constant": true,
      "inputs": [],
      "name": "getEmployeeBalance",
      "outputs": [
        {
          "name": "",
          "type": "uint256"
        }
      ],
      "payable": false,
      "stateMutability": "view",
      "type": "function"
    }
  ],
  "bytecode": "0x60806040526706f05b59d3b2000060015534801561001c57600080fd5b50336000806101000a81548173ffffffffffffffffffffffffffffffffffffffff021916908373ffffffffffffffffffffffffffffffffffffffff160217905550600260408051908101604052806040805190810160405280600681526020017f4a617669657200000000000000000000000000000000000000000000000000008152508152602001673782dace9d9000008152509080600181540180825580915050906001820390600052602060002090600202016000909192909190915060008201518160000190805190602001906100f892919061025d565b5060208201518160010155505050600260408051908101604052806040805190810160405280600681526020017f4d696c746f6e000000000000000000000000000000000000000000000000000081525081526020016729a2241af62c00008152509080600181540180825580915050906001820390600052602060002090600202016000909192909190915060008201518160000190805190602001906101a192919061025d565b5060208201518160010155505050600260408051908101604052806040805190810160405280600481526020017f4a6f73650000000000000000000000000000000000000000000000000000000081525081526020016729a2241af62c000081525090806001815401808255809150509060018203906000526020600020906002020160009091929091909150600082015181600001908051906020019061024a92919061025d565b5060208201518160010155505050610302565b828054600181600116156101000203166002900490600052602060002090601f016020900481019282601f1061029e57805160ff19168380011785556102cc565b828001600101855582156102cc579182015b828111156102cb5782518255916020019190600101906102b0565b5b5090506102d991906102dd565b5090565b6102ff91905b808211156102fb5760008160009055506001016102e3565b5090565b90565b610aae806103116000396000f3006080604052600436106100a3576000357c0100000000000000000000000000000000000000000000000000000000900463ffffffff168062574ae6146100a85780632411ff73146100c85780634b6c1bd1146100f357806353a774e9146101515780635f35cdfb146101fe57806367a0b4d0146102555780638245163b146102805780638da5cb5b146102ab578063c31872e314610302578063f997114f146103cf575b600080fd5b6100c6600480360381019080803590602001909291905050506103e6565b005b3480156100d457600080fd5b506100dd610654565b6040518082815260200191505060405180910390f35b3480156100ff57600080fd5b50610134600480360381019080803573ffffffffffffffffffffffffffffffffffffffff1690602001909291905050506106a2565b604051808381526020018281526020019250505060405180910390f35b34801561015d57600080fd5b5061017c600480360381019080803590602001909291905050506106c6565b6040518080602001838152602001828103825284818151815260200191508051906020019080838360005b838110156101c25780820151818401526020810190506101a7565b50505050905090810190601f1680156101ef5780820380516001836020036101000a031916815260200191505b50935050505060405180910390f35b34801561020a57600080fd5b5061023f600480360381019080803573ffffffffffffffffffffffffffffffffffffffff169060200190929190505050610791565b6040518082815260200191505060405180910390f35b34801561026157600080fd5b5061026a6107a9565b6040518082815260200191505060405180910390f35b34801561028c57600080fd5b506102956107b6565b6040518082815260200191505060405180910390f35b3480156102b757600080fd5b506102c0610835565b604051808273ffffffffffffffffffffffffffffffffffffffff1673ffffffffffffffffffffffffffffffffffffffff16815260200191505060405180910390f35b34801561030e57600080fd5b5061034d600480360381019080803573ffffffffffffffffffffffffffffffffffffffff1690602001909291908035906020019092919050505061085a565b6040518080602001838152602001828103825284818151815260200191508051906020019080838360005b83811015610393578082015181840152602081019050610378565b50505050905090810190601f1680156103c05780820380516001836020036101000a031916815260200191505b50935050505060405180910390f35b3480156103db57600080fd5b506103e4610932565b005b6000806002838154811015156103f857fe5b9060005260206000209060020201915081600101543414151561041a57600080fd5b600360003373ffffffffffffffffffffffffffffffffffffffff1673ffffffffffffffffffffffffffffffffffffffff16815260200190815260200160002090506005816000016000828254019250508190555060018160010160008282540192505081905550600460003373ffffffffffffffffffffffffffffffffffffffff1673ffffffffffffffffffffffffffffffffffffffff1681526020019081526020016000208290806001815401808255809150509060018203906000526020600020906002020160009091929091909150600082018160000190805460018160011615610100020316600290046105139291906109d6565b5060018201548160010155505050600560003373ffffffffffffffffffffffffffffffffffffffff1673ffffffffffffffffffffffffffffffffffffffff168152602001908152602001600020600081548092919060010191905055503373ffffffffffffffffffffffffffffffffffffffff167fc1b8c3c208bbcc7aa38020fcc9c1d03e3b1950d2e9a0d782439ee832a7f5934983600101548460000160405180838152602001806020018281038252838181546001816001161561010002031660029004815260200191508054600181600116156101000203166002900480156106405780601f1061061557610100808354040283529160200191610640565b820191906000526020600020905b81548152906001019060200180831161062357829003601f168201915b5050935050505060405180910390a2505050565b6000600360003373ffffffffffffffffffffffffffffffffffffffff1673ffffffffffffffffffffffffffffffffffffffff1681526020019081526020016000206000015460015402905090565b60036020528060005260406000206000915090508060000154908060010154905082565b6002818154811015156106d557fe5b9060005260206000209060020201600091509050806000018054600181600116156101000203166002900480601f0160208091040260200160405190810160405280929190818152602001828054600181600116156101000203166002900480156107815780601f1061075657610100808354040283529160200191610781565b820191906000526020600020905b81548152906001019060200180831161076457829003601f168201915b5050505050908060010154905082565b60056020528060005260406000206000915090505481565b6000600280549050905090565b6000806000809054906101000a900473ffffffffffffffffffffffffffffffffffffffff1673ffffffffffffffffffffffffffffffffffffffff163373ffffffffffffffffffffffffffffffffffffffff1614151561081457600080fd5b3090508073ffffffffffffffffffffffffffffffffffffffff163191505090565b6000809054906101000a900473ffffffffffffffffffffffffffffffffffffffff1681565b60046020528160005260406000208181548110151561087557fe5b906000526020600020906002020160009150915050806000018054600181600116156101000203166002900480601f0160208091040260200160405190810160405280929190818152602001828054600181600116156101000203166002900480156109225780601f106108f757610100808354040283529160200191610922565b820191906000526020600020905b81548152906001019060200180831161090557829003601f168201915b5050505050908060010154905082565b600080600360003373ffffffffffffffffffffffffffffffffffffffff1673ffffffffffffffffffffffffffffffffffffffff168152602001908152602001600020915081600001546001540290503373ffffffffffffffffffffffffffffffffffffffff166108fc829081150290604051600060405180830381858888f193505050501580156109c7573d6000803e3d6000fd5b50600082600001819055505050565b828054600181600116156101000203166002900490600052602060002090601f016020900481019282601f10610a0f5780548555610a4c565b82800160010185558215610a4c57600052602060002091601f016020900482015b82811115610a4b578254825591600101919060010190610a30565b5b509050610a599190610a5d565b5090565b610a7f91905b80821115610a7b576000816000905550600101610a63565b5090565b905600a165627a7a723058202713163ae1f57df5891929a6691b75f8aa7a7fa1293a7375c4a4aababe0041780029",
  "source": "pragma solidity ^0.4.24;\r\n\r\ncontract Employee {\r\n\r\n  address public owner;\r\n\r\n  struct Worked {\r\n      uint loyaltyPoints;\r\n      uint totalEmployeds;\r\n  }\r\n\r\n  struct Employed {\r\n      string name;\r\n      uint256 salary;\r\n  }\r\n\r\n  uint etherPerPoint = 0.5 ether;\r\n\r\n  Employed[] public employeds;\r\n\r\n  mapping(address => Worked) public workeds;\r\n  mapping(address => Employed[]) public workedsEmployeds;\r\n  mapping(address => uint) public workedsTotalEmployeds;\r\n  \r\n  event EmployedPurchased(address indexed worked, uint salary, string employed);\r\n\r\n  constructor(){\r\n      owner = msg.sender;   \r\n      employeds.push(Employed('Javier', 4 ether));\r\n      employeds.push(Employed('Milton', 3 ether));\r\n      employeds.push(Employed('Jose', 3 ether));\r\n  }   \r\n\r\n  function buyEmployed(uint employedIndex) public payable {\r\n      Employed employed = employeds[employedIndex];\r\n      require(msg.value == employed.salary);\r\n\r\n      Worked storage worked = workeds[msg.sender];\r\n      worked.loyaltyPoints += 5;\r\n      worked.totalEmployeds += 1;\r\n      workedsEmployeds[msg.sender].push(employed);\r\n      workedsTotalEmployeds[msg.sender] ++;\r\n\r\n      EmployedPurchased(msg.sender, employed.salary, employed.name);\r\n  }\r\n\r\n  function totalEmployeds() public view returns (uint) {\r\n      return employeds.length;\r\n  }\r\n\r\n  function redeemLoyaltyPoints() public {\r\n      Worked storage worked = workeds[msg.sender];\r\n      uint etherToRefund = etherPerPoint * worked.loyaltyPoints;\r\n      msg.sender.transfer(etherToRefund);\r\n      worked.loyaltyPoints = 0;\r\n  }\r\n\r\n  function getRefundableEther() public view returns (uint) {\r\n      return etherPerPoint * workeds[msg.sender].loyaltyPoints;\r\n  }\r\n\r\n  function getEmployeeBalance() public isOwner view returns (uint) {\r\n      address employeAddress = this;\r\n      return employeAddress.balance;\r\n  }\r\n\r\n  modifier isOwner() {\r\n      require(msg.sender == owner);\r\n      _;\r\n  }\r\n}",
  "sourcePath": "C:\\Users\\hp\\Desktop\\Prueba\\SmartPymes\\contracts\\Employee.sol",
  "compiler": {
    "name": "solc",
    "version": "0.4.25+commit.59dbf8f1.Emscripten.clang"
  },
  "schemaVersion": "2.0.2",
  "updatedAt": "2020-08-06T12:50:03.720Z"
}